:020000040000fa
:080000000002040000000000f2
:020000040000fa
:10040000af00220060f1270000018800000000001a
:100410000a00070011000700000020000000e000b3
:10042000020032000000020000000000b82b0200b1
:10043000000000000040da000000fe004440a90077
:10044000000c20000000e00003003200000020004b
:10045000a00188004440a800000006006066290052
:10046000010020001500370062004000e0804800d5
:10047000910188009001ba0062004000e0804800cd
:10048000910188009002ba0062004000e0804800bc
:100490000002eb006028e10004003a000059eb0084
:1004a0008301e900fdff3e00040037006128e10000
:1004b000010032000082eb00050007009101880076
:1004c0001001ba000200e000e7ff3a00000005005a
:1004d000910188008002780062004000e0804800be
:1004e0003559ba008301e900080032002559ba00e5
:1004f0008301e900050032000400e000f4ff32004f
:1005000015d9ba008301e900f1ff3a0000000600a6
:10051000e202040000000000889fbe008004780012
:100520004a1fe20004003a000000eb000f00070041
:100530000000e000090035000900e00002003a0078
:1005400058fa80000600370058fa8000090044007d
:10055000060007000000e00001003d000084eb0001
:10056000080078004f04be000000060080007800fc
:100570000000e00004003a000000200050fa88006b
:1005800001017800060037000081eb000000200028
:10059000808f500002003e0051fa88000001eb00fd
:1005a00002007800000006008001eb000200370026
:1005b00061f079008301e800828f5100fcff3a006e
:1005c00000000600881f780002047800f6ff07008c
:1005d000080040004f04780000000600881f7800e3
:1005e000000478008201780001017800880078001a
:1005f000202e20000f000700800078000000e0009f
:10060000020035000040eb0000f4780001007800a3
:100610004f047800000006008001eb000200370064
:10062000817178008301e800828f5100fcff3a005d
:10063000000006006200fa00889fbe008a9fbe008c
:100640000004be00020578008300780060f92f00e6
:100650000f004000b000070088979f0099979f0007
:100660000000eb00a09f9f009a4578000b80fb00e4
:100670000000ea00cf04de0050c2b30080cf550076
:100680000200320009047800010037000904e90083
:100690000800e0000b0034001f909700080178006c
:1006a0008a0078008f9197000300010090979f00c7
:1006b0000000e000930032002f98970000004400f3
:1006c000a09f9f000905450050c2b30080cf550090
:1006d000040032000b04e000e3ff3a002f9897007b
:1006e000890037000000eb00809f9f00f0979f007b
:1006f000e0979f00d0979f00c0979f00b0979f0002
:10070000c09f9f000900370060ff2100008050005b
:1007100000004000a1fe2100e10078004f98970002
:1007200001007000c09f9f000a05e8001a4478008d
:100730008800fb0060ff21007c000700800078003b
:100740000000e000f0ff3a00a0c2b300804f540068
:100750000e003a00bf8897000180e900b08f9f002b
:1007600010007800b09f9f000000e00005003d00f1
:100770000000ea00b09f9f004f9897000020a00063
:10078000c09f9f000a05e80010003700b19f9f003e
:1007900009003700bf989700f0ff2700808f5000b6
:1007a000040032006a08b900000041000300400064
:1007b000b09f9f000a05e8001a01fb0003fd2f000f
:1007c00003004100e90f5000f2ff3600e0c2b30021
:1007d0009a4f1000040032000080eb00909f9f00b1
:1007e0008a0478001c0037008a04e800a0c2b30025
:1007f000994f100007003a00bf8897000180e90078
:10080000b08f9f0010007800909f9f008a84e800be
:10081000110037000000eb00909f9f000900370097
:100820009f989700f0ff2700808f5000040032004f
:100830006a08b9000000410003004000909f9f003b
:100840008904e8001901fb0003fd2f0003004100ab
:10085000e90f5000f2ff3600194478008800fb00d1
:10086000c0ff2100310007000000e00002003a0054
:1008700000447800010037008904e800a87f9f0049
:1008800080c6b300804f540004003a00994f140012
:100890000a003a006640500006003700c0c6b300a8
:1008a000804f540005003a00994f140003003a00ad
:1008b00065404000a07f9f008904e8000905e8002a
:1008c000c8fb2f000f04440060f92f000f00400008
:1008d0008085e80088017800194178008000780060
:1008e0000b0078001a0007000000e00005003a0045
:1008f000880078000b007800920107000000e000fb
:1009000059ff3d000080eb004f05be004f04be00c4
:100910000080fa00000006000200fa00f1bf9f000c
:10092000010878000080fa0000000600040037008b
:100930000204e00001003a00000005000000e800a9
:1009400010417800814f5100f9ff3a000000060085
:10095000889fbe008a1f780000047800010278009a
:10096000824478000305780070c6b300804f5100c0
:1009700021003c0000c0e900804f5100de003d0036
:1009800072405000804f51004b0132000d003c007e
:100990006c405000804f51005e013c0000c0e900f7
:1009a000804f5100d4003d0050c2b300804f510031
:1009b000550132007c404000804f510055013a0003
:1009c000cd00370010c6b300804f5100ca0032007e
:1009d00004003c0069405000804f51004d013a0036
:1009e0007200370030c6b300804f5100180032004b
:1009f0000040e8000900370000c7b300804f5100f5
:100a00001e01320008003c0000c0e900804f510088
:100a1000e400320065003c006540500080cf540087
:100a20003c013a000f00370050c7b300804f51001f
:100a30005e00320063404000804f51005b00320096
:100a400065405000804f510032013a001a013700d2
:100a50009180e900010a7800780090009171780097
:100a600032013700a8609000c0c6b30080cf5000ac
:100a70000a003a009400780064805000000a780070
:100a80001000be004f89de00cf91de000002be00e4
:100a900002037800820378001300370010c7b30008
:100aa00080cf500003003200a0c6b30080cf5000ba
:100ab00006003a009400780068805000000a780030
:100ac0003002be002003be00070037001480e9009a
:100ad000000a78001000780000027800cfa2de0043
:100ae0000503780086037800049cbe000694be00cf
:100af000a860900080c6b30080cf50000e00320086
:100b000020c6b30080cf500005003a000400fb006f
:100b1000cf80de0001017800820178000a003700f2
:100b200040c7b30080cf5000030032006640400051
:100b300080cf500006003a0004007800cf80de002d
:100b40000101780082017800009cbe000294be0082
:100b50003800be002801be00e00f5000e08f5800b2
:100b6000e00f5900e08f590003003d00780090002d
:100b7000d1c2b3000a003700081090000018a3008b
:100b80000300320078009000b1c2b30004003700c7
:100b90000008a300530032007800900001c2b300a7
:100ba000017578000000e8004d003700a860900053
:100bb000c0c6b30080cf500006003a009400780011
:100bc00064805000000a78001002be006033b80054
:100bd0001300370010c7b30080cf5000030032006d
:100be000a0c6b30080cf500006003a009400780001
:100bf00068805000000a78003002be002003be006a
:100c0000070037001480e900000a7800100078001f
:100c100000027800050020000600200007002000e8
:100c2000049cbe000694be00a860900080c6b3007d
:100c300080cf50000e00320020c6b30080cf50009d
:100c400005003a000480fb000100200002002000a3
:100c5000030020000a00370040c7b30080cf5000d7
:100c6000030032006640400080cf500006003a008a
:100c70000400780001002000020020000300200092
:100c8000009cbe000294be00081090000038a30033
:100c9000140032003800be002801be00e00f5000f2
:100ca000e08f5800e00f5900e08f59000d0032002e
:100cb00080c7b30080cf54000300320080c5b3006a
:100cc00080cf540007003a007800900001c3b300c1
:100cd000017578008000e80009f578000080e800e0
:100ce00070049800780090000000450060049800af
:100cf000894078006d003700a8609000c0c4b30040
:100d000080cf500006003a009400780068805000c0
:100d1000000a78005001be004000be000500370008
:100d20009400780064805000000a78001000be0033
:100d3000390a0700009cbe000294be0038009000f3
:100d40000000e00003003d0078009000d1c2b30035
:100d50000a003700081090000018a30003003200ba
:100d600078009000b1c2b300040037000008a3006f
:100d7000050032007800900001c2b30001757800d0
:100d80000000e80070049800780090000000450022
:100d9000600498008940780008007800330107005b
:100da00064003700a8609000c0c6b30080cf500038
:100db000250032000a003c006440500080cf500003
:100dc0002800320000c0e80080cf5000140032003c
:100dd0006840500080cf500022003a000a003700df
:100de00040c7b30080cf50001e0032006640400074
:100df00080cf50001b0032006940500080cf50006f
:100e000018003a00060037001480e900000a780054
:100e100010007800485c90000848780045003700d2
:100e20001480e900000a7800100278006808900039
:100e3000cf80de000101780082017800009abe00b8
:100e40000292be003b0037001480e900000a7800df
:100e50001001780068089000cf80de000089be0095
:100e6000340037001480e900000a78001000780090
:100e7000680c9000080878002e0037001180e90007
:100e80008008780010007800cf80de000101780033
:100e900082017800009cbe000294be0078009000a1
:100ea000000045006004980081c7b3000800780086
:100eb000170307001f0037001480e900000a7800bc
:100ec0001000780060049800580990000200e000cb
:100ed00002003d00c6030700090037008000eb0058
:100ee000ca030700800078000000e0000300320021
:100ef0006800900000805000010037005808900002
:100f0000100c98000b0037007800900002757800f4
:100f10000600370078009000800045000904e000da
:100f200001003a0059c2b300894878000000e80087
:100f3000700498000000eb004f0578004f04be00dd
:100f4000000006000400fa00889fbe008a9fbe00d1
:100f50008c1f78000004780001067800700890006b
:100f6000f800900001005000880890000100500037
:100f70009808900001005000a8089000010050005f
:100f8000b808900001005000c8089000810550008a
:100f90000002220090bf9f0000032300a0bf9f001b
:100fa000081090000028a30018003a000b00e00091
:100fb000160034008b04780009057800e28f540095
:100fc000020036002a002000020037000900e0007d
:100fd0000b00340058009000c80190000a0178000e
:100fe000ee80570003000100500498000000e0006c
:100ff000960032006808900000004500600c9800e0
:101000008a8454004240a900ebff3c007801900024
:101010000200e0000b00340058009000c80190006e
:101020008c00780003000100500498000000e000ec
:101030008600320068089000f8009000010040002f
:10104000600c9800880c90000900e0001500340046
:1010500009057800e28f5400020036002a002000c3
:10106000020037000900e0000b0034005800900037
:10107000c80190000a017800ec80570003000100cd
:10108000500498000000e0007000320068089000f2
:1010900000004500600c98008a8454004240a9007a
:1010a000ebff3c00180990000200e0000b00340048
:1010b000e800900058009000c80190000300010073
:1010c000500498000000e0006000320068089000c2
:1010d0009808900001004000600c9800a80c900057
:1010e0000900e0001500340009057800e28f540083
:1010f000020036002a002000020037000900e0004c
:101100000b00340058009000c80190000a017800dc
:10111000ec80570003000100500498000000e0003c
:101120004a0032006808900000004500600c9800fa
:101130008a8454004240a900ebff3c00380990002b
:101140000200e0000d003400e80090001808900054
:101150008080400058009000c8019000030001000a
:10116000500498000000e000380032006808900049
:10117000b808900001004000600c9800c80c900076
:101180000900e0001500340009057800e28f5400e2
:10119000020036002a002000020037000900e000ab
:1011a0000b00340058009000c80190000a0178003c
:1011b000ec80570003000100500498000000e0009c
:1011c000220032006808900000004500600c980082
:1011d0008a8454004240a900ebff3c0008109000b4
:1011e0000028a3001b0032000b00e00019003400af
:1011f0008b04780009057800e28f54000200360065
:101200002a002000020037000900e0000b00340033
:1012100058009000c80190000a017800ee80570045
:1012200003000100500498000000e00007003200b5
:101230006808900000004500600c98008a84540003
:101240004240a90003003400eaff37000080eb00b1
:10125000010037000000eb004f0678004f05be008c
:101260004f04be000080fa00000006008f04b000aa
:10127000889fbe008a9fbe008c9fbe008e1f780094
:10128000f0b79f0081f79f005001be004000be00f4
:10129000f0979f00819f9f00929f9f00a39f9f00b8
:1012a00010c6b3000ff19700804f510016003200b6
:1012b00010c4b300804f510013003200ffb19700fb
:1012c000530890000000e00003003d006000200093
:1012d000d00998000c0037000000e0000a003a0036
:1012e00070c6b3000ff29700804f52000300320027
:1012f00070c4b300804f520003003a001000200079
:10130000ffb29700d00a9800ffb09700c0fa2f00f4
:101310000f004000c702070080017800e20f500074
:1013200015003a0030002000ffb0970090089800a8
:1013300010c6b3000ff19700804f51000a00320031
:1013400064404000804f5100070032000040e80038
:10135000804f51000400320061f921000040e80094
:10136000804f510001003a00a1f92100ffb1970020
:1013700063009000160037000000e0001800340001
:10138000300020007fb29700100a980010c6b3000a
:101390008ff2970080cf52000a0032006440400074
:1013a00080cf5200070032000040e80080cf52009a
:1013b00004003200e1f921000040e80080cf520033
:1013c00001003a0021fa21007fb1970062009000ed
:1013d000315878003158780011487800c60137003c
:1013e00014c6b3008ff2970084cf5200030032007e
:1013f00010c4b30080cf520013003a007fb09700b2
:10140000600190008200780000c3b300805878002b
:10141000ffb29700e102980080c7b3008ff29700f7
:1014200084cf52000100320080c5b30080487800ac
:101430000280e800ffb09700e00098007100900083
:101440000080e800f00098000300e00005003a008a
:10145000e3979f0064fb2f000f0142000307780011
:10146000a001370065fa2100e5b79f0010c6b30060
:101470008ff0970080cf50000500320010c4b300f9
:1014800080cf5000a7003a0072fb2100e2b79f0016
:10149000ffb19700530890001e0220000000e000fa
:1014a000010035000007e8000e02e800d4b79f00f5
:1014b0006022b8006033b8007f9097008f98970043
:1014c0001f999700af99970072080700ffb0970027
:1014d0003102be002103be000000e00004003d0018
:1014e0000400be000601be0003f0a20002003700a7
:1014f0000400be000601be00f0979f00819f9f0080
:10150000929f9f00a39f9f006f91970064015100dd
:10151000e2979f00c3fa2f008f8141006a8041004b
:101520000048eb006b824100c4b79f0031003700d8
:10153000c201200003002000e5fa2f000f804200c6
:10154000680207007f9497008f9c97001f9d97006b
:10155000af9d97000800be000a01be0052080700b8
:101560000006be005fb1970067015100d2b79f002f
:101570004240a9000a003400770807000002be00bc
:101580000203be000800be000a01be007508070085
:10159000f0979f00819f9f00929f9f00a39f9f00b5
:1015a000cfb197006780410071002000050037002f
:1015b0006f6066004c6add004466de000c06720057
:1015c000c4eede00e00f5600e08f5e000500340040
:1015d0008100e900e18f4000f5ff3a00010037008b
:1015e0000060eb008100e900fdff3b006700400068
:1015f000c0b79f00dfb297000500e000090034008b
:101600006022b8006033b8007f9097008f989700f1
:101610001f999700af999700540807000000e00059
:10162000c3ff3c0060fb2f008f0040004fb19700cc
:10163000010051000000e9008e0f500001003d0044
:10164000000778000e00e00003003d0073fb2f0050
:101650000f8141002c003700800f570005003d002e
:101660000e80400010409000f3c0b300e74f5000e0
:1016700001003c008041eb00c4fa2f000f02420041
:101680000e0042006a0040008e0078000100370022
:101690000000e9008100e90010417800834f51000b
:1016a000fbff32000107e800efcf510001003a00d4
:1016b0000248e8000100e0000300350075fb2f0040
:1016c0000f814200060037000e07e8006f90970078
:1016d00064004000e0979f0061fb2f000f814000f5
:1016e0008e0041008e017800030037001100fb00de
:1016f0006fb29700e44878008301e9008100e900b7
:101700000300e000f9ff3d00ffb29700550890008c
:101710000000e000f3003d000e00e900d00a980050
:10172000f00037007f9497008f9c97001f9d9700d3
:10173000af9d97006022b8006033b8000800be007b
:101740000a01be00d30707000000e00005003d00cd
:101750000bf0a200f8979f00899f9f009a9f9f001f
:10176000ab9f9f006f909700725927000280b900cd
:10177000026a28001300200001080700e40050005e
:10178000e1979f0015003b00e3801000c0ff2f0091
:10179000008460000800ea00e0979f007f909700b7
:1017a0008f9897001f999700af999700e9f421004f
:1017b000070037000808a300030032003902be000a
:1017c0002903be00fd0707000884d100e884440017
:1017d0000800e000f7ff3c001b0037000100e000bc
:1017e0001d003400c0ff2f0000806000e0979f00c4
:1017f000000478006000b8000200200003ff23000e
:10180000e9f42100070037000808a30003003200b4
:101810003902be002903be00e80707000884d10092
:10182000e88444000800e000f7ff3c000002be002e
:101830000203be007f9097008f9897001f99970032
:10184000af99970052080700f0979f00819f9f0073
:10185000929f9f00a39f9f00ffb0970051099000a7
:1018600060c6b3008ff1970080cf510004003200b2
:101870006100200060c4b30080cf510002003a0034
:101880006f929700ea00420001074100f30f5700f2
:10189000010034003e01200000c3b300e0779f0048
:1018a00075fb2f008f824200b5b79f0033003700d1
:1018b0000800be000a01be007b0707000006be004c
:1018c000680757004240a9000e003400a207070035
:1018d0000002be000203be000800be000a01be00f6
:1018e000a00707006022b80046782d007719240071
:1018f000b2070700f0979f00819f9f00929f9f0073
:10190000a39f9f003fb0970068044000890020001b
:101910000d003700a4002000050020000c01be00cf
:10192000e0fd2f000f004000e70107007fa89700af
:101930008fb097001fb19700afb1970004c3b300f9
:10194000046441000006be00e00f5600e08f5e0018
:10195000060034008904e900e18f4400edff3a00fd
:101960000200370000c3b300006478008904e90076
:10197000fcff3b0068044400b8b79f000e00e00085
:101980000b0034007f9497008f9c97001f9d970059
:10199000af9d97006022b8006033b8000800be0019
:1019a0000a01be00710707000000e000c0ff3c0014
:1019b000c5fa2f008f8242006a804200bfb09700b4
:1019c000008050008001e9006f919700e70041001e
:1019d0006b814200010037000201e80000c3b30040
:1019e000924f1000fcff320074fb2f000f004200ea
:1019f0008080400082805000008041000202500040
:101a0000e1979f00ffb29700d509900060c6b30030
:101a10008ff2970080cf52000300320060c4b30001
:101a200080cf520002003a008100e8000a0037002f
:101a300050c6b3008ff0970080cf500005003200f1
:101a40008000eb0050c4b3008ff2970080cf5200ab
:101a500001003a0011002000018741008e0f520062
:101a600001003d00040778000e00e0001d00350075
:101a7000840f570005003d00e2407f0095c3b3008e
:101a800040c3b30080cf500001003c0005c3b30049
:101a90000e0041008000e9008e017800010037004f
:101aa0008100e9008301e90011427800854f52006e
:101ab000fbff32000307e80090c3b30080cf520061
:101ac00001003a008448e8000300e00005003d0002
:101ad0000201e9000e07e8006f9097000000e8009f
:101ae000e0979f006f9297008e0178008ff097002b
:101af0007fb09700910107004f0778004f06be00a6
:101b00004f05be004f04be008f04b1000000060068
:101b1000ef02b000889fbe008a9fbe008c9fbe006f
:101b20008e1f78000006780090fd2100c0b79f004e
:101b300080c5b30080cf50000800320082fc210035
:101b4000c2b79f007740400080cf500003003a00aa
:101b500083002000b3b79f000a00370080c7b3009e
:101b600080cf500005003200a4002000b4b79f00d1
:101b700080c5b30080cf500002003a000001200071
:101b8000b0b79f003c04be002c05be0040c6b300a9
:101b900080cf5000030032006540400080cf5000ed
:101ba0000b003a00e00f5400e08f5c00e00f5d0096
:101bb000e08f5d0006003d006000b8006011b800d5
:101bc00008045000898458000a0559008b85590083
:101bd000e00f5400e08f5c00e00f5d00e08f5d00df
:101be00004003a005c0890008d0120000000e00035
:101bf0000c003200bfb0970001027800cfa2de00d7
:101c000005037800860378000800be000a01be00c4
:101c10003a0807004fb2970064407800d0df9f0079
:101c20007d0120003fb0970000027800cfa2de00c7
:101c300005037800860378000800be000a01be0094
:101c400027080700009ebe000296be000d00e900b6
:101c500061fc2f008f804000008740001e0037008d
:101c60003fb1970002047800cfc4de000905780078
:101c70008a0578000802be000a03be007fa897000c
:101c80008fb097001fb19700afb197001f080700f2
:101c9000d0b79f00e1b79f00f2b79f0083bf9f00be
:101ca0008d06e9000802be000a03be009d08070079
:101cb0007faa970000005200cfb0970061577800cc
:101cc0005fb09700efb097007fb197008fb9970092
:101cd000009ebe000296be003c00be002c01be006d
:101ce000f0af9f0081b79f0092b79f00a3b79f00fe
:101cf000e00f5000e08f5800e00f5900e08f5900ce
:101d0000020034000d00e000d5ff3c00bfb097009a
:101d1000e88f500010003a000c1090000038a3002b
:101d20000d003200f78f560006003e0062fc2f00c7
:101d30000f0141008d00410000c3b300914f10001e
:101d4000050032008d06e90000c3b30063fc2f00dc
:101d50008f81410080f17e0078811600120e98007c
:101d60006c00900063fc2f008f8141008d8041004a
:101d70000dfa07001c0990005c089000800f5100cc
:101d800006003d0002005000000e98000c1090006c
:101d90000040a100001698000f0037000000e0008e
:101da0000d003d000c10900074006000f00f50001a
:101db00009003a007c089000fc00900001005000ef
:101dc0008c08900001005000020050004240a90021
:101dd00001003400000e98004f0778004f06be0047
:101de0004f05be004f04be00ef02b1000000060028
:101df00080007800010037000000e8001004e000d7
:101e0000fdff3a0001005000000006008001eb00d9
:101e1000040037008301e80090cf10000400320076
:101e20000000e800828f5100faff3a000000eb004a
:101e300000000600889fbe00800478006684400091
:101e400000ff2700180060004401de00f07f200042
:101e5000800f51000e003a00800ceb00180478004f
:101e60006f0064001c003a00210090000000e000b8
:101e700019003a00110090000000e00016003a003e
:101e8000100020001100e0001400320012003700a2
:101e90000200e00005003c0001007800db010700c3
:101ea000000178000000e00008003c00f00028007d
:101eb0001800600001fe2300010c700020c02f00fc
:101ec000800c41000080eb0004003700800ceb0028
:101ed0000000eb0001003700200020004f04be008e
:101ee00000000600889fbe008a1f78008c9fbe00fd
:101ef000000478000206be00e604400019017800e4
:101f00000200d0004505de008a007800f07f200046
:101f1000800f55000c003a006f00610065003a0028
:101f2000280090000000e00062003a0018009000d5
:101f30000000e0005f003a00100020001800e00000
:101f40005d0032005b0037000a00e00007003a0045
:101f500008007800ad010700800078000000e00074
:101f6000020034000a007800530037006108b9000d
:101f70000c0140008d814800e07f2000800f51005f
:101f8000e08f59000d0034001900e00004003d000e
:101f90006000b8000200200003ff2f00030037009c
:101fa0006000b8000200200003ff2700009cbe0074
:101fb0000294be00100020003f003700e00f5100e7
:101fc000e08f590005003400f0002800190060007f
:101fd000c410dd00810c7000340037001900780057
:101fe00001002800010360006f0060000040a000b5
:101ff000800c780061015100e0815900c0fc2f0085
:10200000f1ff2f00800f5100818f59000d003d001e
:10201000860c78000000eb00200498001004980063
:10202000000c7800240037008880e800110c78004c
:10203000640044009008780019087800800ceb00d8
:1020400070014100f00f4100f7ff34008202ea0006
:10205000150032008881e800708212009800780034
:102060008508de00130078000400dd00008c70009d
:1020700064014400930078008508de0012007800b7
:102080000400dd0080897000920078008508de0081
:10209000190078000400dd00008970001900780044
:1020a0000500de00800c7800990c73000080eb00c6
:1020b00001003700200020004f06be004f057800c9
:1020c0004f04be00000006000400fa00889fbe0016
:1020d0008a9fbe008c1f78000006780092bf9f0088
:1020e000a3bf9f000404be000401be001fb89700f8
:1020f000afb89700a20507000005be000001be00b2
:102100000800be00b50707001fb99700afb99700d8
:102110000000510081805900200698003106980087
:102120000a8ebe000c0078004f0678004f05be00f6
:102130004f04be000080fa00000006000e00fa0006
:10214000889fbe008a9fbe008c9fbe00000478005e
:102150000145780002067800830478008406780040
:102160000300e00002003c00190020006c00220087
:1021700060c6b300804f55000e00320060c4b3004b
:10218000804f55000b00320070c6b300804f5500e1
:102190000300320070c4b300804f55009c003a0029
:1021a000e48f46008000350058089000808f56006c
:1021b0007d003d008d05e80060c6b300804f5500ee
:1021c0001000320060c4b300804f55000d00320093
:1021d000081090000038a30004003a00580890004e
:1021e000808f540001003d00590c98005808900061
:1021f0000b005000500c980002003b000000eb0068
:10220000500c98000b00e00027003c0018099000db
:102210006800900001c3b300017079008201e800fa
:10222000130c9800580890000000e00003003c00e8
:10223000081090000038a3000500320068009000ec
:10224000e1c2b30001f079000280e800100c9800b0
:10225000d80890000b00ea00808f500001003d007c
:102260008105ea000b00ea00200c9800018045007f
:10227000500c9800890f500001003d008004780048
:10228000390c980068009000980890000100400008
:10229000090178008c007800c3f807005808900006
:1022a000090050001a00370098089000680090005c
:1022b0008b8f540018003d00010040000901780098
:1022c0008c007800b8f807001808900000814400de
:1022d000120c980009805500200c980058089000b6
:1022e0000000e00003003c00081090000038a3004c
:1022f00006003200e8009000e0c2b3008070790070
:10230000380890000000e800300c98005808900051
:10231000400c9800a6003700010040000b01780037
:102320008c007800a0f80700180890000081450094
:10233000120c98008b845400580890000000e000b4
:1023400003003c00081090000038a3000500320094
:1023500068009000e1c2b300017079000200e8005b
:10236000100c980058089000890f500001003d00a3
:1023700080047800680090009808900001004000f8
:102380008b0046000901780087f8070018089000c4
:1023900000804400100c980058089000090050007c
:1023a000200c98008200370070c6b300804f5500a3
:1023b0000300320070c4b300804f550014003a008f
:1023c00058089000808f540004003d0008109000d1
:1023d0000038a30001003a00590c980058089000fa
:1023e0000000e900500c980002003b000000eb00e8
:1023f000500c980070c6b300804f550002003a00a0
:102400005ac6b3000b0037005ac4b30009003700a6
:1024100010c6b300804f550002003a000ac7b3004f
:102420000400370010c4b300804f550001003a008b
:102430000ac5b30018099000680090003c7079004c
:102440008201e800130c98000c02780058089000f4
:102450000000e00003003c00081090000038a300da
:1024600017003200e8009000e0c2b30080f079006d
:102470008280e800110c9800580890000000e000ed
:102480000f0034008904e900890f500001003d006d
:102490008004780068009000008040000901780006
:1024a0008400780040f8070018089000008044007d
:1024b000100c98005808900009005000200c98005b
:1024c0006800900098089000010040000086e80035
:1024d0000a587800800078000d00e0000400350004
:1024e000b0c2b300804878008c0478000400370044
:1024f000d0c2b300804878008c0478008d06ea00d2
:102500008005eb000a003700a20020008d00780053
:1025100070805700890007000fb897009fb8970098
:102520007a81550001f17f008b05e8008006780074
:102530000d00e000f4ff3c00e18f550009003c0075
:1025400050c6b300804f55000300320050c4b300a2
:10255000804f550003003a0000c3b300005e7800ce
:102560008c0478000b00e000040032000b00e9004e
:10257000fa805700008040000600370000c3b30017
:10258000805c7800050037008b05e90002c3b300ca
:10259000a05c41000b00e000fbff3c0068009000e5
:1025a000980890000100400000805400300c980012
:1025b0000810900074006000f00f50000e003a0008
:1025c000780090009808900001004000a808900052
:1025d00001004000b808900001004000c8089000c9
:1025e0008100400078089000808f500002003d007c
:1025f00001005000000c98004f06be004f05be00c1
:102600004f04be000080fa000000060000027800bf
:10261000e6024000150078000100280081036000f8
:102620006f006000800a780012003a0024009000d9
:102630000000e0000f003a00140090000000e000ed
:102640000c003a00160020001400e00038003200b0
:1026500008003700e4004200910a78000480e80096
:102660009008780014087800000aeb00700353000b
:1026700001003700160020001500e000f5ff3200d1
:10268000130037006401420080004000120078000f
:102690004f00de00808a70008481e800920078009c
:1026a00081804000130078004f00de000089700038
:1026b0009300780081804000140078004f00de0015
:1026c0008089700014007800000a40000603e900c9
:1026d00015007800ef0f5000eaff360010003700b9
:1026e0000481e8009400d100120078004f00dd0062
:1026f000008a7000e40042009201d10011007800cd
:102700004f00dd00008971001101d1001500780033
:102710004f00dd0080087100950ad1000603e80033
:1027200015007800ff0f5000edff3e00ef0a60003b
:10273000958a730006007800000006000202780007
:10274000809fbe00110009008200d80000017800bf
:102750004f00be0002a2b900848050001100980012
:102760000208780000000600889fbe008a9fbe0015
:10277000010578000100e0000400350008003c007d
:102780000000e0002000320005003700600010006b
:10279000e080180002003b0001f02c001a00370016
:1027a0000004be006011b8006b0920000982cf0050
:1027b000020039000882cf000441b0006942520093
:1027c0000e00320008003b0082817100610164004c
:1027d0008904d1000884d3008b05e8000442e80096
:1027e000f9ff3a00050037000804440089844c00d2
:1027f0008b05e9000442e900fbff3a00fd050700f4
:102800000af0a70001f0a0004f05be004f04be0073
:102810000000060003f0a200889fbe008a9fbe0051
:102820008c1f780019060700200633006450e10071
:102830004f0032006420e1005200320003826c003d
:1028400007003b000905d0000306d000820f5400aa
:102850000c065d0002003900020032008901780098
:10286000030678008582550004003d000003fd004a
:102870008103fd008502ea008b854200840f72000f
:1028800002003b0060001000e08018006011b800fa
:102890000005eb007a28e1000a0039000600780004
:1028a000c75ddd00f707b200878075002d00370097
:1028b000828171000a017800610560008180d10089
:1028c0000080d3008502e900f9ff3b0006044000c8
:1028d0008784480002003b0060041400e0841c0070
:1028e0000988a300070032008a817100828171008b
:1028f000610164008904d1000884d3008b05e800dd
:10290000170037000978a30013003a000b00e0001d
:10291000130034008b05e9000804440089844c004e
:102920000a4474000978a3000d003a000b00e0008f
:10293000070034008b05e9000804440089844c003a
:1029400001003a000b0020000978a300f7ff3200d5
:102950000001eb0002003700828171000a0178005b
:10296000a40507000cf0a70001f0a000d80537006f
:102970006420e10002003a00838f6c00d805330028
:102980000801be000200be00d1053700889fbe00ce
:102990008a9fbe008c1f7800bc050700c30533006a
:1029a00003866c006450e1002e0032006420e100d8
:1029b000330032006150e1002f0032006120e1005d
:1029c0003100320085855500eb07b000090020007a
:1029d00008042000050037000804440089844c00e6
:1029e0000a0031000603430087834b0000015300b7
:1029f00081815b00f8ff33000203be000800a000e5
:102a00000804440089844c00f6ff3900c639dd0013
:102a10008301730001003200130020008904d100fb
:102a20000884d3000998a300050032000800a7001d
:102a30000300a0008904d1000884d3008b05e800be
:102a40008904d1000884d3000001eb000281d20088
:102a50006805070001f0a1000cf0a70001f0a0003c
:102a60009b0537006420e1009d0532000801be008f
:102a70000200be00f7ff37006120e1009805320038
:102a80006000b800f3ff37000000200001f82700c5
:102a9000f0ff37000001be00940507000470a70096
:102aa00003f0a1006509b100160032000d003500e9
:102ab0006828e10006003500f0ff2f00f1ff270035
:102ac0000300e00013003b000100280000000500a7
:102ad00000004000818048008502e900fcff3a00c8
:102ae00008003700f88f420002003c008000eb0035
:102af000000005008100d1000080d3008502e800bd
:102b0000fcff3a000300e00002003b006000100000
:102b1000e080180000000600889fbe008a9fbe006b
:102b20008c1f7800590507001002200002003b00ae
:102b300060fa88005d0537008a0062006408e100e1
:102b400002003a0060fa8800650537006108e1007c
:102b5000fcff32000800be00030478008bff070072
:102b600001f0a1002101070008f0a60004003700d1
:102b70000001be0091042400b0fd200025ff0700e5
:102b800009f0a70001f0a200510537000c00fa007f
:102b9000889fbe008a9fbe008c9fbe003b05070039
:102ba0000206be00840578000200be00020020007c
:102bb0006305070005003a008b02b30012002000f5
:102bc0005f05070001003a00f8856d000c01be00aa
:102bd000c60007000800be009b0032000b08a300df
:102be0009e003a000df0a7000be0a00009f0a7003e
:102bf0000bf0a00009f0a1000801be00bb00070017
:102c00000bf0a6009500320001003c000bd0a000a4
:102c10008acf7500b20033006000b8006250e10056
:102c200099003900a1003e000b28a300a2003a0041
:102c30000bf8a300060032000b58a300a7003200d7
:102c40000801be00a90007000800be009400320081
:102c50000800be00610507000004be0005057800fd
:102c60000bf0a7000b30a6000bf0a1005b0798004b
:102c7000324f200053f323006302070005003d009c
:102c80000800be0012002000610507000004be001d
:102c90000a05e9004a0798006150b900b2fe070032
:102ca000008fbe000c01be001902070079ff07006b
:102cb000300798000100e00002003d0060001000b5
:102cc000e0801800f2ff2700820f5000e08f5800cc
:102cd00064003e000c00be006eff07002007980055
:102ce000f2072000820f5000e08f580005003c00e2
:102cf00012f82f00f3ff2f00820f5000838f58002f
:102d000009003d000a00e0000300320001003c0021
:102d10000201ea00020578006000b8002007980070
:102d20003a079800190037003e0090006100b90092
:102d30008dfe0700809fbe000c00be004109dd0033
:102d40004811de007208b100fd0407000005be0056
:102d50001e01be00ee0107004f01be00adfe0700e0
:102d6000809fbe000c00be000a01be00a9fe070045
:102d70001e01be00e60107004f01be00a6fe0700cf
:102d80008221270013f32300e10107000005be00a4
:102d90002e0090006100b90073fe070001f0a20050
:102da0000c01be009cfe07000006be000800be002d
:102db000390507000c01be00d50107000a01be005d
:102dc00095fe0700809fbe004a0007002e05900078
:102dd0000af0a7000a05ea00050037000800be0057
:102de0000801be00ca0107000004be000c00be00be
:102df0000801be000a00a700c50107000006be00ca
:102e00000a05d100f5ff3a005e01900002e0a6003d
:102e1000030037000001be0036000700dbfe07009c
:102e20000004be004f00be003a0107000801be00ca
:102e3000b70107003e019000f5040700de05900091
:102e40000bf0a70001f0a2004f06be004f05be0028
:102e50004f04be000080fa000000060025000700b5
:102e6000f9ff3700270007006000b8000bd0a7006b
:102e70000bc0a0000be0a7000bc0a2000bc0a70076
:102e800001f82700f0ff37000df8a3000200320020
:102e90001e000700190007000bf8a300eaff32002c
:102ea0000b30a70001f0a200e7ff37000df8a300e8
:102eb000f9ff3a00f7ff37000801be000b000700da
:102ec000e6ff320001003c000df0a2006000b800f7
:102ed0000df0a70009000700dbff37000b0007001b
:102ee000f1ff2700f0ff2f00d7ff37000100070098
:102ef000c501370001f823000000050001f8270094
:102f00000000050020022000010037001002200010
:102f100060fa880000000600889fbe008a9fbe00fd
:102f20008c1f78000004be00700407000478a30022
:102f300026003a006120e1002500320009f8a300d4
:102f400025003a006420e10021003200f507b100bd
:102f50000508a30002003200000040008180480004
:102f60006044b80003102000020020000000400070
:102f7000818048000805440089854c000a0541000d
:102f80008b8549000a0550008b85580003003300eb
:102f90000a00be0002047400838474008301d1001f
:102fa0000281d300830f7100f0ff3a008904d10041
:102fb0000884d3006001490082017800c1adde00c1
:102fc000fb07b0000b040700410437000960a000b4
:102fd0000800be003e0437001202200062fa88009a
:102fe000f0ff2f00f1ff270039043700889fbe0053
:102ff0008a9fbe008c9fbe000004be003b040700f9
:103000000800be00890678006420e100080039004d
:10301000040032000160a0001202200062fa880061
:103020005300370091fc2300b0fd20004e00370014
:103030000006eb0009f0a10003f8230002002000c5
:103040000800be00700107000600340001f82300ec
:10305000000020000801be004cfe07000004be0076
:103060002c0020000800be0093e82300320a230051
:1030700065010700120034000801be00d1fd2300e5
:10308000703d2b00e4fd07000005be00b3f32300f4
:10309000f27a26000800be001d01070003f8230095
:1030a00002002000dbfd07000801be00dafd07007a
:1030b0000a01be0035fe07000004be000c06e80051
:1030c0000800be0001f0a1000200200003982300c8
:1030d0004d0107000800be00160035000801be00c3
:1030e0000b0107000005be0032cd2c0043fb23007e
:1030f000c9fd0700809fbe001269280003d52b0080
:103100000a00be0002010700620f210013ef2b002e
:10311000c1fd07000a01be00fd0007004f01be000f
:103120001afe07000801be00f90007000801be00f2
:10313000b9fd07000c00e0000b0032000c10a700e6
:1031400001f0a200b2fd200093fc23006260e100c8
:103150000400320022a9200063f023000c10a70015
:1031600063f82300acfd07000df0a70001f0a200fa
:103170004f06be004f05be004f04be000000060013
:103180000001eb009b0437000001eb000005370055
:103190000081eb00fe043700889fbe008a9fbe00be
:1031a0000004be00d10307000800be006420e10057
:1031b0000700390002003a00f1ff2700f0ff2f005e
:1031c0000160a0001202200062fa88004c00370063
:1031d00001f0a10002802000935c24000a01070096
:1031e0000800be0004003500b2fd20009304240056
:1031f000030107000004be0032982f0023f22300d1
:10320000c30007000200200003f0230001f0a70024
:1032100003f0a00080fd07001efe0700801f78005d
:1032200051fd070001f0a2000005be0002002000d1
:1032300093fc2300b60007000801be0076fd0700de
:10324000809fbe000a00be0022a22a00d39f230056
:10325000af0007004f01be006ffd07000004be0075
:1032600001f0a1000200200003982300a60007003f
:1032700003003d000000200001f823001800370083
:103280000800be000001be00a10007000005be004e
:10329000823b230043dc2b009d0007000801be0099
:1032a0009b0007000801be005bfd07000004be0094
:1032b0000a00be0052372300f3c123009400070028
:1032c000f27a2b00b3ed2b0053fd07000a01be007c
:1032d0008f0007000200200003f823004efd0700c6
:1032e0004f00a600030037000801be0003f0a20053
:1032f000020037000001be000800be00a3fd070069
:103300004f05be004f04be00000006003200200042
:1033100038043700889fbe008a9fbe008c9fbe0085
:103320000004be00710307000800be006420e10035
:1033300048003e005500320072212700132b240064
:103340007100070047003c000800be00c2ec2800e6
:10335000e32c2c00ac000700470035000800be003d
:1033600001f0a1000200200003382300a60007009e
:10337000430035000800be00b2a32a0083fb2300ef
:10338000630007000200200003f0230001f0a70003
:1033900003f0a00020fd0700befd07000005be00f1
:1033a000f1fc070001f0a2000006be0002002800a8
:1033b00013f32300560007000801be0016fd0700a6
:1033c000809fbe000c00be0032082800e3952b0051
:1033d0004f0007004f01be000ffd07000006be00b2
:1033e0000001be004a000700809fbe004241250048
:1033f00083b82300460007000200200003e82300f2
:1034000005fd07000c01be00410007000006be00dc
:103410004f00be00f2f92b00c3d423003c0007008c
:103420000200200003f02300fbfc07000c01be009b
:10343000f8fc07000001be000c00be0053fd0700b1
:103440000200200003f02300f3fc070061014500a7
:103450006f0307004f06be004f05be004f04be00bd
:103460000000060001f827000000200022022000d2
:1034700062fa8800f7ff37006000b800fbff3700f2
:1034800001f8230000002000f2ff370009f8a30034
:10349000f0ff32006000b800eeff37000001be0010
:1034a000120307000470a70003f0a10003f8a300b3
:1034b00013003a006509b100100032000900350020
:1034c0006928e10002003500010028000000050025
:1034d00000004000818048008502e900fcff3a00be
:1034e00000000600f88f4200050035008100d10081
:1034f0000080d3008502e800fcff3a0000000600cf
:103500008000eb0000000500f4ff2f008904370065
:10351000889fbe008a9fbe008c1f7800db020700d8
:10352000e202330003866c006450e10024003200a4
:103530006420e100270032006150e10022003200e7
:103540006120e100210032008b854200eb07b100d1
:103550000134b800003ab8000804420089844a00e7
:10356000013ab8000030b8008880400009014a00e4
:10357000040033000000400081804800020149003f
:103580008b05e900c909dd008301700001003200ec
:1035900013002000c814de004814dd004709de00d7
:1035a0001200b200c808de00088470009102070013
:1035b00001f0a1000cf0a70001f0a000c402370048
:1035c0006120e100c60232000801be000200be0018
:1035d000f7ff37006150e100fcff3a00c0023700fe
:1035e0000001eb00d60207000400320002002000b8
:1035f00003f8230001f0a70086fc07000000060086
:10360000040020006604370014002000490437003d
:10361000040020004704370081037800b30207004c
:103620000001be006000b8000478a30013003a0057
:103630006220e10015003e000d0039008301d10039
:103640000281d3008180d3008301d1000281d300a5
:103650008180d3008301d1000281d3008180d30017
:103660000538b000c42add00f300b2008381720087
:1036700007f0a70003f0a00000000600f3ff2700fa
:10368000f2ff2f006110b900fbff370003ff270096
:10369000f7ff37008f1fd100900407008f87e900e4
:1036a0000000e000000006001400fa00889fbe0041
:1036b0008a9fbe008c9fbe000004be000205be00b3
:1036c000680047000a90be000890be00ac040700e6
:1036d0000070a7000bf0a100304320009e02900074
:1036e00080825200b0fe2f000028e10011003d0052
:1036f000b0fc2f000028e100150034001e099000e6
:103700008e0890007e0090000501b0000201d100fb
:103710008180d3000080d3008502e800fbff3a00df
:103720000b00e000d1043b0060001000e0801800b6
:10373000ce043700f0ff2f00f1ff27000b00e00060
:10374000ca043b000100280000002000c704370025
:103750006000b800c50437004f89de0082017800a0
:10376000c704370007f0a200fc043700809feb007d
:103770005a0407008f87e9000000e00000000600ff
:10378000839f68000100e00002003d00600010001f
:10379000e08018000300e00002003d00600111001d
:1037a000e08119006a0507004f00e00002003b00bd
:1037b00060001000e0801800000006002800fa00f9
:1037c000889fbe008a9fbe008c9fbe0003866b0050
:1037d000920407000028a30064003a000128a30017
:1037e00067003a000008a30062003a000108a30045
:1037f00065003a001e009000be089000810640005f
:10380000ed3fb100f4805700ee019000111ab800ae
:103810008e099000311bb8009e099000311cb80041
:10382000511db800f485570046000700fe019000c6
:103830003a0007008b85e8003e0007008e099000e3
:1038400040000700ee019000340007008b85e8007f
:10385000380007008e099000400007009e09900084
:103860001b18b800890440000a854800fe0190003a
:10387000340007008b85e80038000700ee01900057
:10388000300007008e0990001b18b8008904400022
:103890000a8548000a98a30008003a000402420082
:1038a00085824a0006034b0087834b0008044c00c6
:1038b00089844c000a054d008d06e900848272005f
:1038c000850273004c3add0085027200010032006f
:1038d00015002000443ade001400b2004538de0036
:1038e000cb45dd000b007000c540de00cb4ddd0098
:1038f0008b8070004549de00cb55dd000b01710067
:10390000c551de000d0378002105070003f0a1007a
:103910000cf0a70003f0a000540437001b18b800f7
:103920008502400006834800e0834b0060044c00a1
:10393000070037001b18b8000603400087834800c3
:10394000faff37001b18b8008703400008844800be
:10395000e0844c0060054d00000006001b18b80014
:103960000804400089844800faff37000108a300da
:103970003b043a005800be005801be00e3ff370088
:103980000008a30036043a0009047800f9ff370064
:103990002800fa00889fbe008a9fbe008c9fbe0050
:1039a00003866b001d0407006400e1004400320040
:1039b0006408e1004a0032006100e1004600320084
:1039c0006108e10049003200ec0647006000b800e1
:1039d0003d02be003d03be00f48657006011b800f2
:1039e0003d04be003d05be007d0320000b003700f6
:1039f0000000a0008d06e90013003200040242001e
:103a000085824a0006034b0087834b00000040007c
:103a10008180480002014900838149000802520068
:103a200089825a000a035b008b835b00f0ff3b0036
:103a30000802420089824a000a034b008b834b0034
:103a40008d06e900edff3a008482720086827200e2
:103a5000f707b200878272000100320015002000d3
:103a60001e0490003e0b900006035400e63fb00099
:103a70000368a300070032000000a7000500a000b3
:103a80008301d1000281d3008180d3000080d30064
:103a90000603e8008301d1000281d3008180d300b6
:103aa0000080d3000002eb000482d200b8040700bb
:103ab00003f0a1000cf0a70003f0a000eb03370017
:103ac000640247006408e100e50332003400be00f0
:103ad0003401be00f6ff37006108e100e003320068
:103ae0006011b8006000b800f1ff370003ff270045
:103af00002002000fbff3700881f780000047800d8
:103b00005001be004000be00040040008580480017
:103b10000601490087814900009cbe000294be0056
:103b20000400e1000588e1000690e1000798e1004b
:103b300002003100680044001008e8004f047800db
:103b400000000600f4874700889fbe008a9fbe00e1
:103b50008c9fbe008e1f78000205be000004be00d0
:103b6000d4b79f00e5b79f00f6b79f0087bf9f00bf
:103b70000000eb00c0b79f00b0b79f00a0b79f0048
:103b800090b79f0080b79f000d042000bfb0970042
:103b90004fb09700000140000000e0000f003d0022
:103ba0004f08de0000007100c0b79f009e000700b4
:103bb00001003d0012002000a100070001003d00af
:103bc00012002000a6000700b1000700b6000700a1
:103bd0000f004000c8ff0700220037004f08de003a
:103be00000067100ccb79f008f00070001003d0068
:103bf000120020009200070001003d00120020008a
:103c000097000700a20007000fb297009fb297002d
:103c10002fb39700bfb39700a90007000000520020
:103c200081805a0002015b0083815b0080b79f00a6
:103c300091b79f00a2b79f00b3b79f000007eb00aa
:103c40009f0007000020e10001a8e10002b0e100b0
:103c500003b8e100010031001e0020000e005600f4
:103c6000c0b79f004fb297000400e0000700350086
:103c700010002000010020006011b800080470004e
:103c8000898470000a0571008b8571008d06e9003a
:103c9000beff3a000400e00003003d008200070080
:103ca0000f00400094ff07004fa897000000e000bd
:103cb00004003a000fb497009fb497002fb5970007
:103cc000bfb59700940007004f0778004f06be006d
:103cd0004f05be004f04be004f01b10000000600ba
:103ce000881f780018002000881f780095ff0700c3
:103cf0008f87e9004f04780000000600801feb006a
:103d000090ff07008f87e90000000600889fbe0033
:103d10008a9fbe008c1f78006e00070007003d00e0
:103d200073000700e00f5b00e08f5b0007003d00c1
:103d3000320007000006eb000400370034000700e3
:103d400002003d002a0007001c002000720007004e
:103d5000e3ff07000203be000002be000c00e0000b
:103d600001003200220007000400be000601be0070
:103d70004f0678004f05be004f04be00000006004d
:103d8000889fbe008a9fbe008c1f780051000700ec
:103d900005003d0056000700e00f5b00e08f5b0070
:103da00006003d00040037001900070003003d0035
:103db0006000b8006011b80010000700560007004e
:103dc000ceff07000203be000002be000c00e000b0
:103dd00001003200060007000400be000601be001c
:103de0004f0678004f05be004f04be0000000600dd
:103df0006000b8006011b8000000370004025000f5
:103e00008582580006035900878359000000060088
:103e10000006eb00e00f5200e08f5a00e00f5b005d
:103e2000e08f5b00000006000180400090b79f001b
:103e30000001eb008fb097000100e00000000600d9
:103e40000200700090b79f000180400080b79f0083
:103e50000001eb00ffa897000100e0000000060051
:103e60000200700080b79f00018040006faa970099
:103e7000cf20de0001007000f0af9f00040242007e
:103e8000250007004f18de00000272000000060047
:103e9000e4af9f000804440089844c000a054d00eb
:103ea0008b854d00000006003fb29700cfb297000f
:103eb0005fb39700efb3970000fe2f0000000600ed
:103ec0003fb09700cfb097005fb19700efb1970078
:103ed000000006000205be000004be00e00f500016
:103ee000e08f5800e00f5900e08f590000000600f5
:103ef0006000b8006011b8000804500089845800c0
:103f00000a0559008b8559001c002000e00f520063
:103f1000e08f5a00000006000800be000a01be0043
:103f200000000600889fbe008a9fbe008c1f78009c
:103f30000205be000004be000006eb00e00f5000ca
:103f4000e08f5800e00f5900e08f590007003d0056
:103f50006000b8006011b80008045000898458005f
:103f60000a0559008b8559001c002000e00f520003
:103f7000e08f5a00e00f5b00e08f5b0002003d0025
:103f80000f0007000c00a2000800be000a01be00de
:103f9000ab0307000203be000002be000c00e000fd
:103fa00001003200060007000400be000601be004a
:103fb0004f0678004f05be004f04be00000006000b
:103fc0006000b8006011b8000402500085825800fb
:103fd000060359008783590000000600020ab90051
:103fe000001bb9000200b8008100420081004300bc
:103ff0000000060081002000618055000b003d009c
:104000000b00200061fe2f000100e1001d003400c4
:1040100082817100610164008904d1000884d300a9
:104020000000e800faff3a0071002000610064001f
:1040300003007000020060000900320061044400c7
:10404000e0844c000988a500050032008b05e800db
:104050006808e10002003a008904d1000884d30016
:10406000f20f20000258e10005003d00c75ddd00b1
:10407000f907b2008980750008007800000006008a
:104080000bf827008b007800000005000004be003c
:10409000160007000003be000405be000200be00bb
:1040a00012000700844f7500000006000200be00e9
:1040b0006450e100050036006420e1000200360093
:1040c0000968a30001003a000800be000160a000da
:1040d0004f0678004f05be004f04be0000000600ea
:1040e000f0ff2f00f1ff2700f9ff3700c70ade00bd
:1040f000f107b200f50fb20008003200e1cf420034
:10410000020032000170a00024000500810f700041
:10411000010032000408050044000500810f700012
:1041200002003a00140005008502e900000040008a
:1041300081c04800fcff3b000170a0002400050086
:10414000889fbe008a9fbe000003be00e7ff0700f5
:104150008505780082815200020020006220e10083
:1041600004003a00f307b100040035007718e100bd
:10417000040035000600be00140037006000b800df
:104180000f003700f50f2000faff2f008502d10045
:104190000a85d3008301e900fcff3b0081846200b3
:1041a00000046500890f7400f2ff32008582ea0086
:1041b0000a85ea0081846200000465008dff070023
:1041c00007f0a70001f0a0000081eb000200e00072
:1041d0004f05be004f04be00000006000003be00f5
:1041e000c2ff07006220e100020032000600be00ac
:1041f00005000500e507b100f107b20004f0230057
:104200008480700007f0a70001f0a00024000500e2
:104210000003be00b5ff07006220e100020032008b
:104220000600be000000060085024100e30f2000ea
:104230000328e10005003c00a3fe2f000328e10055
:1042400007003d000500200001003700f50f2000a9
:104250002002200060fa88006000b80008003700e3
:10426000130020008381520005003d008100d10031
:104270000080d3008301e800fcff3a000500200025
:10428000c72add00f107b2008580700007f0a700a3
:1042900001f0a00000000600889fbe008a9fbe00bb
:1042a0008c9fbe00cdff0700850478000005be008e
:1042b0006420e10049003e006220e100030032007a
:1042c000090035000bf8a300440032000bf8a300ee
:1042d000080032001002200060fa8800f0ff2f0072
:1042e000f1ff27003d00370001f82f0000002000fb
:1042f0003a0037003d00070046f907000006be00ff
:104300000a00be00324f200053f323007efc07005a
:10431000060034000c00be00340007003df9070021
:104320000006be000a00be00020037008904e90052
:104330000c00be002d00070075fc07002b000700d5
:1043400035f907000001be000c00be008ff9070020
:104350000005be000001be006dfc07000006be00a7
:10436000a2f32300430d2c002bf90700809fbe0011
:104370000c00be00d2e32700d3f02b0064fc070042
:104380004f01be0081f907000006be000a01be0011
:104390005ffc07000a01be001ff907000006be000f
:1043a0006148b900f0f807000005be003208280097
:1043b000e3952b0056fc07000c01be0016f9070020
:1043c0000006be000a00be000200280013f323000e
:1043d0004ffc07000c01be000ff907004f06be009e
:1043e0004f05be004f04be000000060003f023008e
:1043f00002000500889fbe008a9fbe008c9fbe0001
:104400000206780001f0a7000cf0a0000004be0036
:1044100036ff07000800be006420e10007003900f5
:1044200002003a00f1ff2700f0ff2f000160a0001a
:104430001202200062fa88005100370009f0a10042
:104440000800be000200200003f823002efc070035
:10445000f4ff3c000800be00020020000398230087
:1044600069fc07000800be00300035000200200093
:1044700003f0230024fc070005003c000800be00f8
:104480000801be0022fc07000005be000e00370038
:104490000c10a2000000200001f823000801be005b
:1044a000dcf807000200200003f0230018fc0700de
:1044b0000005be0098fa07000200200003002c004f
:1044c00013fc07000004be000a00be00b2d02800a2
:1044d000130b2c00d0f807000a01be000cfc0700eb
:1044e000020f2500330b2400cbf80700809fbe008d
:1044f0000a00be005206220013f02b0004fc070045
:10450000b2662100f3f62300c3f807000a01be00db
:10451000fffb07004f01be001cf907000801be00a9
:10452000fbfb07000801be00bbf807000c00a7005a
:1045300007003700b2fd200093fc23000c10a700f9
:10454000b5f807000cf0a70001f0a2000c0037003e
:104550000cf0a7000200370001f0a20004003700b1
:10456000b2fd2000930424000c10a60003003700c5
:10457000b2fd200093fc23000c10a700a6f8070052
:104580004f06be004f05be004f04be0000000600ef
:10459000889fbe008a9fbe008c9fbe008205780067
:1045a0000004be00d1fe07000800be006420e10048
:1045b0000700390002003a00f1ff2700f0ff2f004a
:1045c0000160a0001202200062fa88005500370046
:1045d0006120e10003003a000b00a70001f823006e
:1045e0005000370001f0a100020021009364240074
:1045f00005fc07000800be0004003500b2fd2000e5
:10460000930c2400fefb07000004be000005eb0035
:104610000b00a6004f0dde0001f0a1000004be005b
:1046200032982f0023ea2300b9fb07000001eb00ba
:1046300003f023000b00a70003f8230076f807001f
:1046400014f907000000a7000a00a20046f80700be
:104650000b00e000030032000200200003f0230002
:104660006cf8070001f0a2000006be000200200066
:1046700093042400a6fb07000801be0066f80700ab
:10468000809fbe000c00be0022a22a00d3a72300f8
:104690009ffb07004f01be005ff807000004be004b
:1046a00001f0a1000200200003982300d6fb0700c0
:1046b0000800be00190035000001be0094fb070091
:1046c0000006be00b2c52900e362230090fb07008c
:1046d00022222b00f3942b004ff807000c01be00a0
:1046e0008bfb0700e273280083c023004af8070011
:1046f0000c01be0086fb070042aa2a00a3e22b00a1
:1047000045f807000c01be0081fb07000801be0050
:104710007ffb07000801be003ff807000a00a70062
:1047200001f0a2004f06be004f05be004f04be00c0
:1047300000000600889fbe008a9fbe00841f78008c
:1047400052fe07004f00780011003300f0ff2f00e9
:10475000838f6c0006003b00040565000a00a7007b
:104760000800370009f0a6001000200008003700fc
:10477000820f5400838f5c0003003900100020007a
:1047800001003e000000200009f0a7000000ea0040
:104790004f05be004f04be000000e0000000060010
:1047a000889fbe008a9fbe008c1f78004f26dd00c8
:1047b00036fe07003dfe33006120e1004300320079
:1047c0006250e10041003e003e0039006420e100fb
:1047d0003c003200058255000f003b000402e80057
:1047e00038003a00800f5300818f5b0035003400a1
:1047f0000800be0003f0a10001f0a60003f0a00035
:104800000cf0a70004f8070031fe37000603430050
:1048100087834b000c4646000005530081855b00f2
:10482000020033000a03be000c00a0000402e900ed
:10483000f6ff3b00850578000602430087824b00a7
:1048400004003a006000b80009f0a70001f0a000e1
:104850001ffe37000002520081825a000704e00068
:10486000040033000603430087834b008b05e900f7
:10487000faff3700090578000604be000203be00f7
:104880006011b800dbfd0700e00f5200e08f5a0016
:104890000700350002003c000c08a30004003200b1
:1048a0000601be0003f0a0000cf0a700daf7070035
:1048b0000a85680001f0a1000af0a70001f0a0003d
:1048c00003fe37000800be0001fe37001002200082
:1048d0000cf0a60060fa880001fe3700889fbe0039
:1048e0008a9fbe008c9fbe000404be000605be0069
:1048f000809fbe00829fbe007301070004067800ff
:104900000800be000a01be006f010700840678009f
:104910004f03be004f02be008d4f76007fb0970060
:1049200013003300f0ff2f008b8f6b0006003b005d
:104930000d0666000c00a7000a00370007f0a6006d
:10494000100020000a003700880f5200898f5a009b
:104950008a0f5b008b8f5b00030039001000200082
:1049600001003e000000200007f0a7000000ea0060
:104970004f06be004f05be004f04be0000000600fb
:10498000800078005002be005003be004439de00b3
:10499000f700b200f37f200003016100090032003c
:1049a0000218e10016003a008501720083017300cd
:1049b000838173000008200015003a0040002000a9
:1049c0001300370085017200830173008381730037
:1049d00005003a0004a8be0006a8be001000200092
:1049e0000b0037000201e9000402420085824a0000
:1049f00006034b0087834b000748a300f9ff3200f2
:104a00000740a00004a8be0006a8be0020002000a9
:104a1000800098009200980000000600680447009b
:104a20000294be000094be00fc0447008694be00c1
:104a30008494be0009007800d1ff070008007800c8
:104a4000cfff070099007800814f70000b003b00fa
:104a50000800be002e0107004f00b1000300370020
:104a6000f3ff2700f2ff2f006110b9004f06be00d0
:104a70004f05be004f04be000080fa000000060093
:104a8000889fbe00830478000300e0002c003500fe
:104a900003003c0000827000040271002600320016
:104aa00036432000c50020008383cf000a00390070
:104ab0000541b1008283cf00070039000541b100f4
:104ac0008183cf00040039000541b1008083cf000d
:104ad000010039000541b10085c353006022b800d0
:104ae000120032000a003b00848272006102600002
:104af0008301d1000281d3008180d3000080d300e4
:104b00000603e8008743e800f7ff3a000700370094
:104b10000000400081804800020149008381490073
:104b20000603e9008743e900f9ff3a00980007000f
:104b300009f0a70003f0a0004f04be00000006002b
:104b400060001000e080180060011900e081190089
:104b5000d3ff3b00033e2c00f7ff37002800fa008c
:104b6000889fbe008a9fbe008c9fbe00070678000b
:104b7000878669000c003b000304780087047800f6
:104b800008f0a10009f0a100840f5000858f5800a3
:104b9000860f5900890f5c00030033000cf0a2005f
:104ba00001003a000cf0a1009cff07006400e10046
:104bb0005f003200780147006408e10061003200c4
:104bc0006c014700748557003200be001201be0020
:104bd0003a04be001a05be001e039000be0a9000f3
:104be0008503530006003d000004fd008104fd0024
:104bf0000205fd008305fd008703ea000503780038
:104c00000df8a3000400320060041400e0841c00ce
:104c100060051d00e0851d006022b8007d032000b6
:104c20000d38e1008006eb000b0039004433dd0055
:104c3000f300b200830173003900370084827200f0
:104c40000d027800e10664008b85d1000a85d3004f
:104c50008984d3000884d3008703e900f7ff3b0071
:104c600008004000898048000a0149008b81490002
:104c700004003b0060001000e08018006001190093
:104c8000e08119000358a300090032008d827200f0
:104c900084827200610260008301d1000281d3002e
:104ca0008180d3000080d3000603e8001b0037009a
:104cb0000348a30017003a000600e0001700340084
:104cc0000603e9000d00a3000000480081804800b1
:104cd00002014900838149000348a3000f003a0004
:104ce0000600e000090034000603e900000040006f
:104cf00081804800020149008381490001003a0097
:104d00000003eb000348a300f5ff32006022b80067
:104d10000200370084827200618266001c00070076
:104d200003f0a1000cf0a70003f0a0004fff370034
:104d3000640147006408e10002003a000df8a30096
:104d400047ff3a003200be001201be0047ff3700a5
:104d50006022b800060220000000d0008180d2004e
:104d60000482d2008582d2000000a000020252001c
:104d700083825a00030031000202420083824a000b
:104d80000000a1000603e900f3ff3a00000006005e
:104d90001800200057002000080453000d003d00bb
:104da0000600200097fc2f000740e1001e003400a1
:104db00084827200610260008301d1000281d3000d
:104dc0008180d3000080d3000804e800f8ff3a0097
:104dd00047002000610460000504740004046400be
:104de0000d00320061004000e08048006001490091
:104df000e081490003b8a500070032000603e8007f
:104e00006538e10004003a008301d1000281d3003b
:104e10008180d3000080d300f87f20000830e100bb
:104e200003003500080378006000b8006011b80086
:104e30004433dd00f300b20083017300000006007c
:104e4000889fbe008a9fbe008c9fbe000404b800ed
:104e50000506b8008904460060854e000606b800c5
:104e60000a054600e0854e000706b8008b0546009f
:104e7000040eb800890446000a854e00e0854d0006
:104e8000050eb8000a0546008b854e00060eb800d8
:104e90008b0546000416b8000a0546008b854e00b7
:104ea0000516b8008b054600041eb8008b054600a9
:104eb0000800be000a01be004f06be004f05be003e
:104ec0004f04be000000060005ff270005826100b8
:104ed000070032000428e100010032002400050030
:104ee0000600070001003a00440005000408050020
:104ef00002000700f9ff3a00140005006f8261000c
:104f000081027000850271008502720000000600b7
:104f1000e48240001078a3000700320064024000e1
:104f20001178a3003400be001401be00040032005a
:104f30000330a700000006003500be001501be00ca
:104f40000330a00000000600800078000001780017
:104f500030c2bf0066406000e64f500010003a00cb
:104f60000500370033c2bf000018a300fdff3a0060
:104f7000a21188008180e800110178000200e000a1
:104f8000f8ff3a000000060033c2bf000018a3007b
:104f9000fdff3a000100fb00a01188000201e800bb
:104fa000924078000104e000f7ff3a00000006009c
:104fb0008460a900e7416000c419dd00510a2000a7
:104fc00091407800f2c8b30082c0600083c07000d6
:104fd0008000fd00a5e0b7008000fd0068006000d3
:104fe0004300de004300dd004109200091407800cd
:104ff0000134a10080c070000100780094e0b70087
:105000000000060084e0a900e7416000c419dd004b
:10501000710a200091407800f2c8b30082c060009d
:1050200083c070008000fd00a7e0b7008000fd0095
:10503000680060004300de004700dd0041092000f9
:10504000914078000174a10080c0700001007800d8
:1050500094e0b700000006000621ef006108880018
:10506000800888001061a90000000600300a88004e
:105070000000060084a0a900e7416000c419dd001b
:10508000610a200091407800f2c8b30082c060003d
:1050900083c070008000fd00a6e0b7008000fd0026
:1050a000680060004300de004500dd00410920008b
:1050b000914078000154a10080c070000100780088
:1050c00094e0b70000000600500a880000000600c7
:1050d00088a0a900e7416000c419dd00610b200031
:1050e00091407800f2c8b30082c0600083c07000b5
:1050f0008000fd00b6e0b7008000fd0068006000a1
:105100004300de004500dd00810920009140780069
:105110000154a10080c070000100780098e0b70041
:1051200000000600700a88000000060088c0a90080
:10513000e7416000710b20009140780082cfb300fe
:1051400082c0600083c070008000fd00b7e0b7003f
:105150008000fd00680060004300de004600dd00c6
:1051600081092000914078000164a10080c0700096
:105170000100780098e0b70000000600900a88005f
:105180000000060088e0a900e7416000c419dd00c6
:10519000710b200091407800f2c8b30082c060001b
:1051a00083c070008000fd00b7e0b7008000fd0004
:1051b000680060004300de004700dd008109200038
:1051c000914078000174a10080c070000100780057
:1051d00098e0b70000000600f00a88000000060012
:1051e00086e0a900e7416000c419dd00f10a200053
:1051f00091407800f2c8b30082c0600083c07000a4
:105200008000fd00afe0b7008000fd006800600096
:105210004300de004700dd00610920009140780076
:105220000174a10080c070000100780096e0b70012
:105230000000060061416100a31c2000934178003a
:105240000304a10082c171008001fd00cae1b70022
:105250008001fd0000004000421d20000130790067
:10526000000006008b20a9008be0a90067416000c8
:105270004411dd00010c200091407800f3c8b30018
:1052800083c0600082c070008000fd00c0e0b700f5
:105290008000fd0001c7b30001416000310c200017
:1052a0009140780083c0600082c070008000fd00e3
:1052b000c3e0b7008000fd00680160004311de001c
:1052c00002414100b1092000914078000114a10081
:1052d00082c070008000fd009be0b7008000fd00f0
:1052e000000178000208b2004711de004711dd001e
:1052f000b1092000914078000174a10082c07000c3
:105300008000fd009be0b7008000fd008c00a9003c
:10531000c801de00e7c16100410c20009140780027
:1053200082cfb30082c0600083c070008000fd00a7
:10533000c4e0b7008000fd004b00de00614060006b
:10534000c1092000914078000104a10080c07000d4
:10535000010078009ce0b70000000600200e8800e5
:10536000310e8800430e8800540e8800020e88001b
:045370000000060033
:020000040000fa
:0200000401f009
:04000400ffff0000fa
:020000040000fa
:0200000401f009
:04000800ffff0000f6
:020000040000fa
:0200000401f009
:04000c007bff000076
:020000040000fa
:0200000401f009
:04001000bcff000031
:020000040000fa
:0200000401f009
:040014007fff00006a
:020000040000fa
:0200000401f009
:04001800feff0000e7
:020000040000fa
:10000800de2b0000de2b0000de2b0000de2b0000c4
:10001800de2b0000de2b0000de2b0000de2b0000b4
:10002800de2b0000de2b0000de2b0000de2b0000a4
:10003800de2b00005e990000de2b0000de2b0000a6
:10004800de2b00009a2b0000762b0000de2b000030
:10005800de2b0000de2b0000407c0000de2b0000c1
:10006800de2b0000de2b0000de2b0000de2b000064
:10007800de2b0000de2b0000de2b00001e9a0000a5
:10008800de2b0000de2b0000de2b0000de2b000044
:10009800de2b0000de2b0000447c0000de2b00007d
:1000a800de2b0000de2b0000de2b0000de2b000024
:1000b800de2b00008e990000be990000ee9900002a
:1000c800de2b0000de2b0000de2b0000de2b000004
:1000d800de2b0000de2b0000de2b0000de2b0000f4
:1000e800de2b0000de2b0000de2b0000de2b0000e4
:1000f800de2b0000de2b0000de2b0000de2b0000d4
:10010800de2b0000de2b0000de2b0000de2b0000c3
:10011800de2b0000de2b0000de2b0000de2b0000b3
:10012800de2b0000767c0000de2b0000de2b0000ba
:10013800de2b0000de2b0000de2b0000de2b000093
:10014800de2b0000de2b0000de2b0000de2b000083
:10015800de2b0000de2b0000de2b0000de2b000073
:10016800de2b0000de2b0000de2b0000de2b000063
:10017800de2b0000de2b0000de2b0000de2b000053
:10018800de2b0000de2b0000de2b0000de2b000043
:10019800de2b0000de2b0000de2b0000de2b000033
:1001a800de2b0000de2b0000de2b0000de2b000023
:1001b800de2b0000de2b0000de2b0000de2b000013
:1001c800de2b0000de2b0000de2b0000de2b000003
:1001d800de2b0000de2b0000de2b0000de2b0000f3
:1001e800de2b0000de2b0000de2b0000de2b0000e3
:0801f800de2b0000de2b0000ed
:020000040000fa
:10020800de2b0000de2b0000de2b0000de2b0000c2
:10021800de2b0000de2b0000de2b0000de2b0000b2
:10022800de2b0000de2b0000de2b0000de2b0000a2
:10023800de2b00005e990000de2b0000de2b0000a4
:10024800de2b00009a2b0000762b0000de2b00002e
:10025800de2b0000de2b0000407c0000de2b0000bf
:10026800de2b0000de2b0000de2b0000de2b000062
:10027800de2b0000de2b0000de2b00001e9a0000a3
:10028800de2b0000de2b0000de2b0000de2b000042
:10029800de2b0000de2b0000447c0000de2b00007b
:1002a800de2b0000de2b0000de2b0000de2b000022
:1002b800de2b00008e990000be990000ee99000028
:1002c800de2b0000de2b0000de2b0000de2b000002
:1002d800de2b0000de2b0000de2b0000de2b0000f2
:1002e800de2b0000de2b0000de2b0000de2b0000e2
:1002f800de2b0000de2b0000de2b0000de2b0000d2
:10030800de2b0000de2b0000de2b0000de2b0000c1
:10031800de2b0000de2b0000de2b0000de2b0000b1
:10032800de2b0000767c0000de2b0000de2b0000b8
:10033800de2b0000de2b0000de2b0000de2b000091
:10034800de2b0000de2b0000de2b0000de2b000081
:10035800de2b0000de2b0000de2b0000de2b000071
:10036800de2b0000de2b0000de2b0000de2b000061
:10037800de2b0000de2b0000de2b0000de2b000051
:10038800de2b0000de2b0000de2b0000de2b000041
:10039800de2b0000de2b0000de2b0000de2b000031
:1003a800de2b0000de2b0000de2b0000de2b000021
:1003b800de2b0000de2b0000de2b0000de2b000011
:1003c800de2b0000de2b0000de2b0000de2b000001
:1003d800de2b0000de2b0000de2b0000de2b0000f1
:1003e800de2b0000de2b0000de2b0000de2b0000e1
:0803f800de2b0000de2b0000eb
:020000040000fa
:1053740042450000474900004e200000445500000b
:105384004d500000200000000a3d00003d3d00009b
:1053940020250000732000003d3d00003d3d00003d
:1053a4003d0a00000d0a00000d0a00000d00000077
:1053b4004f760000726600006c7700003a2000000f
:1053c400256400000a0d000000480000656100002b
:1053d400643a000020250000640a00000d0000006b
:1053e40054610000696c00003a200000256400004c
:1053f4000a0d0000004c0000656e00003a20000019
:10540400256400000a0d000000530000697a0000c2
:105414003a200000256400000a0d00000025000069
:1054240064200000004500004e44000020000000fd
:10543400030000000300000001000000030000005e
:10544400030000000100000003000000030000004e
:105454000100000003000000030000000100000040
:10546400030000000300000001000000030000002e
:10547400030000000100000003000000030000001e
:105484000100000003000000030000000100000010
:1054940003000000030000000100000003000000fe
:1054a40003000000030000000000000000000000f2
:1054b400000000000000000000000000803f000029
:1054c400000000000000000000000000803f000019
:1054d400000000000000000000000000803f000009
:1054e40000000000000000000000000000000000b8
:020000040000fa
:10780000800078000041eb0040fa8000504090007a
:107810000004e00001003a0012c0b300924098005a
:107820000000060040fa8000d04090008140e8004f
:107830005140980040c6b30080cf500003003a008a
:107840008040eb0040fa80005140980000000600a4
:10785000889fbe008a1f78000004be0002057800e1
:10786000f226210033a8230027ef07000000e000e4
:1078700002003500088dbe0003003700f02621000d
:1078800031a82300008dbe004f0578004f04be00d4
:1078900000000600008bbe0022039800330398000e
:1078a000440398005503980000000600889fbe001e
:1078b0008a9fbe008c1f7800800578000105780043
:1078c000020678001101be001000be0010ef070094
:1078d0000004be002a019000ba0190002b00900025
:1078e000bb0090000aef07000001be000800be00c8
:1078f000c9eb07000004be004a019000da019000c5
:107900004b009000db00900001ef07000001be007b
:107910000800be00c0eb0700008ebe004f067800d6
:107920004f05be004f04be0000000600889fbe0049
:107930008a9fbe008c9fbe008e1f780001077800d2
:107940001002be0020049000b00490004006900099
:10795000d00690000401be000400be00ecee07005b
:107960000005be000801be000800be00e8ee0700ea
:107970000001be000a00be00a7eb07000004be0025
:107980000c01be000c00be00e1ee07000001be00cd
:107990000800be00a0eb0700008fbe004f07780074
:1079a0004f06be004f05be004f04be00000006009b
:1079b000000a780011029800220298003302980011
:1079c000000006000000fa00881f78001fb497002e
:1079d000008cbe00220498003304980044049800f0
:1079e0005504980066049800770498002fb8970013
:1079f000bfb89700000c9800110c98000fb89700c2
:107a00009fb89700200c9800310c98006fb0970039
:107a1000ffb09700400c9800510c98004fb09700b1
:107a2000dfb09700600c9800710c98002fb09700a1
:107a3000bfb0970000149800111498004f0478000c
:107a40000080fa0000000600008bbe0022039800b0
:107a50003303980044039800550398000000060083
:107a6000ef36b000889fbe008a9fbe008c9fbe008c
:107a70008e1f78006bff070083f98000f3588800a1
:107a800092f9800002598800a1f9800011598800fc
:107a9000b0f9800020598800c4f9800094279e0026
:107aa00034598800d31f9e00e21f9e00f11f9e00e4
:107ab00080279e00b72a070088ebb70005fa8000f0
:107ac0004559880019088000595988000504780034
:107ad0006128b90024eb07000005be000800e000a3
:107ae00004003d0002002000037824004aeb070058
:107af0000005be006148b9001beb07000900e0006b
:107b000003003d00020020000378240042eb070040
:107b10000001be000a00be009ceb0700020020002e
:107b2000832c24007aee0700adee0700020020004f
:107b300003382400b2ee07000004be006011b80054
:107b4000b1ee07000000e00005003d00020020004b
:107b5000033824000800be002feb07000004be001d
:107b60000800be004dee070089ebb700a0b820006a
:107b7000d519070010bf200083f6070010bf2000b2
:107b80009c280700a0b82000e419070089cbbf009b
:107b9000141f070080802000ca290700ec29070075
:107ba000a0408800b1408800818120000040eb00a7
:107bb000d8290700a0b720000001eb0081b8200001
:107bc00002187800810f5000fdff3a00a0e8200065
:107bd00061b82000e2e72000100478001800980047
:107be000a0107800800f5100fbff3a00df1c9600c8
:107bf00009748800d95b8800c0b620000001eb0042
:107c0000a1b7200002187800810f5000fdff3a0054
:107c100080e9200081b72000c2e8200090017800b0
:107c200013009800a0107800820f5000fbff3a006c
:107c30006f1a960074748800645b8800e0b52000b9
:107c40000001eb00c1b6200002187800810f50003f
:107c5000fdff3a0060ea2000a1b62000a2e9200062
:107c60009002780015009800a0107800820f500054
:107c7000fbff3a000f249600e8748800f85a880049
:107c800000b520000001eb00e1b5200002187800eb
:107c9000810f5000fdff3a0040eb2000c1b52000ed
:107ca00082ea20009004780019009800a010780063
:107cb000800f5100fbff3a007f1896005075880036
:107cc000805a8800c2758000d375800022418800e8
:107cd00033418800872907000044780059ecb70039
:107ce0000000fb00cf80de009fea07000005be0019
:107cf0000804e00004003d000200200003382400d6
:107d0000c5ea07000005be000200200003f02300c2
:107d10000a00be00bfea07000001be00a103210067
:107d20000080eb00dd2d07002410e20019003a006e
:107d30000000e0000b0032008040eb00c0cd2000ce
:107d400013c0b30090cf11000100320083407800cf
