:100000004128FF3FFF3FFF3FFF00030E8301A70092
:100010000408A6000A08A8008A017008A90083162F
:100020008C1283121508053A031D1C2895018E01B8
:100030008F010430950032281408A000A101200887
:10004000F100F0017008A0007108A1001308A200DF
:10005000A30122087004A40071082304A5009501DF
:10006000053095008C1283168C1683122908F00037
:1000700028088A0026088400270E8300FF0E7F0EC2
:10008000090003138312A401A501703083168F00A9
:1000900083121F1083169F018312191599141914C6
:1000A0002C3083168500811337309500053083127C
:1000B0009500940193019010901610168E018F01F7
:1000C00010148C1283168C160B178B1701308312A9
:1000D0002502031D6D2818302402031C7228051404
:1000E000851074280510851405120230FC00FF30BD
:1000F000FB00FF30FA00FC0B7E288528FB0B8128D3
:100100008428FA0B81287E287B280630FB00FF30EC
:10011000FA00FB0B8C288F28FA0B8C2889280A30D0
:10012000FA00FA0B9128000005160230FC00FF309F
:10013000FB00FF30FA00FC0B9E28A528FB0BA12832
:10014000A428FA0BA1289E289B280630FB00FF302C
:10015000FA00FB0BAC28AF28FA0BAC28A9280A3010
:10016000FA00FA0BB12800006628B528FF3FFF3FD0
:02400E00D430AC
:00000001FF
